:100000000C942A000C9409010C94E2000C94BB009F
:100010000C943C000C943C000C943C000C943C0070
:100020000C943C000C943C000C943C000C943C0060
:100030000C943C000C943C000C943C000C943C0050
:100040000C943C000C943C000C943C000C943C0040
:100050000C943C0011241FBECFE5D8E0DEBFCDBF1D
:1000600020E0A0E6B0E001C01D92A037B207E1F7A2
:100070000E9430010C94B8010C9400008FB78F7768
:100080008FBF969A8AB18F7E88608AB959B35170B2
:100090005093690099B3969591709093680069B3F5
:1000A00062FB662760F96093670049B343FB44270E
:1000B00040F94093660023B3E22FF0E0EE0FEF2FFC
:1000C000EE1FFF0BE093650033B336FB222720F9C8
:1000D00020936400A3B3A5FBAA27A0F9A093630013
:1000E00033B332953170309362005130C1F1DC98F6
:1000F0009130B9F1DD986130B1F1DE984130A9F16C
:10010000DF98892F880F94E0699FB0011124862B16
:10011000852B68E0469FA0011124842B40E18402D6
:10012000C0011124220F64E0A69FD00111242A2BC4
:100130002E2B68E0369FA0011124242B822B5D9B7F
:1001400016C050988CB95E9B14C05E9A8AB1877FA6
:1001500080618AB996988FB780688FBF0895DC9ABE
:10016000C7CFDD9AC8CFDE9AC9CFDF9ACACF0000C9
:10017000E6CF0000E8CF1F920F920FB60F92112426
:100180002F933F934F935F936F937F938F939F939F
:10019000AF93BF93EF93FF93E0916E00F0916F00E8
:1001A0000995FF91EF91BF91AF919F918F917F91B1
:1001B0006F915F914F913F912F910F900FBE0F90D4
:1001C0001F9018951F920F920FB60F9211242F9324
:1001D0003F934F935F936F937F938F939F93AF93CF
:1001E000BF93EF93FF93E0916C00F0916D00099540
:1001F000FF91EF91BF91AF919F918F917F916F91FF
:100200005F914F913F912F910F900FBE0F901F90D4
:1002100018951F920F920FB60F9211242F933F93B0
:100220004F935F936F937F938F939F93AF93BF93FE
:10023000EF93FF93E0916A00F0916B000995FF91B5
:10024000EF91BF91AF919F918F917F916F915F914E
:100250004F913F912F910F900FBE0F901F901895C7
:100260008E9A8F9A899AD098D198D298D398A79835
:10027000A698A598A498D49AD59AD69AD79AA39ACC
:10028000A29AA19AA09A8FB780688FBF8BB780641B
:100290008BBF85B78E7F826085BF8EE390E09093A1
:1002A0006B0080936A008AB18B7F10BC97E699B986
:1002B00088618AB9919A5F9B51C08CB1809361002B
:1002C000969A97982FEF80E792E0215080409040D7
:1002D000E1F700C00000969897982FEF80E792E032
:1002E000215080409040E1F700C000008091610003
:1002F000982F9F709093600082958F708F30D1F609
:10030000969A979A2FEF80E792E021508040904094
:10031000E1F700C00000969897982FEF80E792E0F1
:10032000215080409040E1F700C000002091600023
:1003300021FB332730F922FB992790F923FB8827EB
:1003400080F920FD0DC0AB98313061F0AA98913052
:1003500059F0A998813051F0A898ACCF0000ABCFEC
:10036000AB9AF2CFAA9AF3CFA99AF4CFA89AA2CFC8
:04037000F894FFCF2F
:00000001FF
