:100000000C942A000C94D1000C94AA000C94830048
:100010000C943C000C943C000C943C000C943C0070
:100020000C943C000C943C000C943C000C943C0060
:100030000C943C000C943C000C943C000C943C0050
:100040000C943C000C943C000C943C000C943C0040
:100050000C943C0011241FBECFE5D8E0DEBFCDBF1D
:1000600020E0A0E6B0E001C01D92A836B207E1F79B
:100070000E94F8000C9455010C9400005D9B06C092
:1000800050988CB95E9B04C05E9A08950000F6CF2C
:100090000000F8CF81FB332730F982FB222720F9BB
:1000A000982F96959695969580FD0BC0DC983130EB
:1000B00051F0DD98213049F0DE98913041F0DF9821
:1000C0000895DC9AF4CFDD9AF5CFDE9AF6CFDF9A69
:1000D00008958AB18F7E88608AB98FB78F778FBF76
:1000E000D89AA89880E00E944A0081EF90E00E9490
:1000F0003E00D898A89A8AB1877F80618AB98FB765
:1001000080688FBF08951F920F920FB60F9211242F
:100110002F933F934F935F936F937F938F939F930F
:10012000AF93BF93EF93FF93E0916600F091670068
:100130000995FF91EF91BF91AF919F918F917F9121
:100140006F915F914F913F912F910F900FBE0F9044
:100150001F9018951F920F920FB60F9211242F9394
:100160003F934F935F936F937F938F939F93AF933F
:10017000BF93EF93FF93E0916400F09165000995C0
:10018000FF91EF91BF91AF919F918F917F916F916F
:100190005F914F913F912F910F900FBE0F901F9045
:1001A00018951F920F920FB60F9211242F933F9321
:1001B0004F935F936F937F938F939F93AF93BF936F
:1001C000EF93FF93E0916200F09163000995FF9136
:1001D000EF91BF91AF919F918F917F916F915F91BF
:1001E0004F913F912F910F900FBE0F901F90189538
:1001F000D09AA09AD49AD59AD69AD79A8FB780686F
:100200008FBF8BB780648BBF85B78E7F826085BFC1
:1002100089E690E09093630080936200899A5298F7
:1002200010BC87E689B9D898A89A8AB1877F80617F
:100230008AB95F9B38C08CB12AB1269530E0322F45
:100240002227330F22273270282BC22F22952F709E
:10025000213049F7CF70C09361008C2F0E944A0073
:10026000C0936000D89AA8982FEF80E792E02150C1
:1002700080409040E1F700C00000D898A8982FEF88
:1002800080E792E0215080409040E1F700C00000FC
:100290008AB18F7E88608AB980916000806F90E01B
:0E02A0000E943E00C0CF0000C4CFF894FFCFF4
:00000001FF
